:020000040800F2
:10000000581C002045010008113B0008FD30000885
:1000100051380008BD0D0008E9720008000000001A
:10002000000000000000000000000000AF5A0008BF
:1000300037100008000000008945000841650008ED
:10004000ED72000841450008E56500089F4800087A
:10005000C51000080948000865100008691000086C
:100060006B1000086D1000086F100008890E000862
:100070008B0E00088D0E00088F0E0008910E0008F0
:10008000930E0008950E0008E1090008E96F0008CA
:10009000EB6F00085B0100085B01000871100008AD
:1000A000E7650008ED650008EB650008E9650008F4
:1000B000F1650008A1690008F5690008033100082E
:1000C00001310008073100080531000847590008D0
:1000D00099590008756C0008B96C00083D6D00085E
:1000E000671000089D480008E76F0008FD690008D8
:1000F000036A0008016A0008FF690008E3090008B4
:10010000C912000845590008F76900089B59000802
:10011000716C0008736C0008F9690008FB6900083D
:10012000970E0008990E00089B0E00089D0E00080F
:10013000DFF80CD000F014FC00480047E976000816
:10014000581C002005480047FEE7FEE7FEE7FEE7F3
:10015000FEE7FEE7FEE7FEE7FEE7FEE73101000807
:1001600030BF704720BF704740BF7047BFF36F8FED
:100170007047BFF34F8F7047BFF35F8F704701DF4A
:100180007047EFF31480704780F31488BFF36F8FCC
:100190007047EFF30980704780F309887047EFF3E9
:1001A0000880704780F30888704762B6704772B65F
:1001B0007047EFF31080704771B6704761B67047B3
:1001C000EFF31380704780F311887047EFF31280CC
:1001D000704740BA704700BA704740EA01039B0776
:1001E00003D009E008C9121F08C0042AFAD203E0AC
:1001F00011F8013B00F8013B521EF9D27047D2B210
:1002000001E000F8012B491EFBD270470022F6E7FF
:1002100010B504460846114602462046FFF7EFFF98
:10022000204610BD30B50EE003460A4601E05B1CD7
:10023000521C1C781578AC4201D1002CF7D115F076
:10024000FF0F04D0401C0278002AEDD1002030BD01
:100250000146002000E0401C0A5C002AFBD17047E8
:1002600030B504460020034600E05B1C934203D2F5
:10027000E05CCD5C401BF8D030BDF0B480EA0102F8
:10028000D20F4300B3EB410F02D203460846194692
:100290004B0042D0C30DDDB2C1F3C7542C1B202C40
:1002A00035DAC1F3160141F4000502B16D42C4F123
:1002B000200605FA06F125412844B3EBD05F23D090
:1002C000C2B1012CA0EBC35009DCF0BC4FF00042DE
:1002D00002EAC35200F50000DBB200F0B4BA4000FD
:1002E00000F1807000EBC350A0F1807040EAD17043
:1002F000490009E0490841EAC071A0EBC35000F58C
:100300000000400800EBC350F0BC00F093BA51422B
:10031000012303EB4101801AF6E7F0BC704781F03E
:100320000041AAE780F00040A7E780EA010210B58B
:1003300002F00042400026D04B0023D04FEA10616B
:1003400001EB1361C0F35600C3F3560340F4000001
:1003500043F40003A0FB0330A1F17F014FEA00400A
:100360001C0401D000F1010050EA134001D4400008
:10037000491EC3B20C0604EBD010401C4008802B71
:1003800002D003E0002010BD20F00100002900DAB7
:100390000020104310BD80EA010202F0004330B497
:1003A00030F0004221F0004015D0A0B1C0F3C75595
:1003B000C2F3C754C2F31601C0F31600651B41F423
:1003C000000140F400007D35814201D36D1C00E046
:1003D0004900002D02DA30BC002070474FF40002C3
:1003E0000024814201D3091A144352084FEA410103
:1003F000F7D151B1814202D14FF0004105E002D264
:100400004FF0010101E06FF0010104EBC55030BC79
:10041000184400F00FBA2DE9FE4F074681EA0300A9
:10042000C00F0E46019021F0004123F00044B81A9D
:10043000A14105D23846314617461E460B460246B4
:1004400023F00040104304D13846314603B0BDE8E4
:10045000F08F350DC5F30A00C3F30A510290401A1C
:100460000090402868DAC3F3130040F4801B019821
:10047000924620B10023D2EB030A63EB0B0B0098EA
:100480005946C0F14002504600F0A3F980460C46A0
:1004900050465946009A00F0BBF9C0197141EF1758
:1004A00085EA11533B4340D0019A52B3009A012A86
:1004B00011DC0022801A4FF0004361EB055103EA82
:1004C00005538018CDE9002341F5801142462346AB
:1004D00000F0F3F9BAE72E050025401B61EB060199
:1004E000401941F58012001852412818A6F5001352
:1004F00043EB020140EAD470294318EB0808644139
:1005000013E064084FEA38084FF0000244EAC07470
:100510004FEA0553801A61EB0301801841F5801101
:1005200049084FEA3000801859414246234603B03B
:10053000BDE8F04F00F0B4B901980122400000235B
:10054000D0EB020263EBE07301984FEAE074381AD3
:1005500066EB0401EBE783F000435CE781F00041C8
:1005600059E72DE9FE4F81EA030421F0004504F02C
:10057000004423F000414FF0000A009450EA0503C4
:1005800002D052EA010304D10020014603B0BDE8C5
:10059000F08FC1F30A53C5F30A541C44A0FB02B305
:1005A000C5F3130545F4801CC1F3130141F4801811
:1005B0000CFB023300FB083EA4F2F334810A930AD9
:1005C00041EA8C5143EA88530194A1FB03474FEA67
:1005D0009C2505FB03734FEA982601FB06373D0572
:1005E000260545EA1435BBEB06016EEB0503850EC7
:1005F000920E45EA8C1542EA8812A5FB0206261ED9
:1006000067EB00070C0D44EA0334A41947EB1350C1
:10061000C1F313064FF0000319464FEA033343EAD0
:10062000165343EA0403019CE5FB0201A4F10C0408
:100630000294009C4FEA0632CDE900A400F03DF997
:10064000A4E72DE9F04D81EA030404F0004B21F00A
:10065000004714464FF0000A23F0004150EA070219
:1006600020D054EA01021DD0C1F30A550246C1F35D
:100670001300C7F30A56C7F3130340F4801143F481
:100680008013A6EB0508101BD64608F2FD3873EB65
:10069000010002D308F1010801E092185B41B8F1B2
:1006A000000F03DA00200146BDE8F08D00204FF472
:1006B0008015064607460EE0B2EB040C73EB010C06
:1006C00004D3121B064363EB01032F436D084FEA6B
:1006D000300092185B4150EA050CEDD152EA03005C
:1006E00012D082EA040083EA0105284303D10022E4
:1006F0004FF0004308E0101B8B4102D2012200237F
:1007000002E06FF0010253101AEB060047EB0851AC
:1007100010EB0A0041EB0B01BDE8F04D00F0C0B852
:10072000C10F80EAE0700844CA079623002100F058
:100730008AB80EB540F2334102910021CDE9001193
:100740000A460B4600F0B9F803B000BDC1F30A52E7
:10075000C1F3130140F2FF3341F480119A4201DAF0
:100760000020704740F233439A42A2F2334202DC47
:10077000524200F03DB89040704700F0004230F027
:1007800000400DD0C10D01F5607142EA0151002217
:10079000C0F31600520742EAD002400711437047E7
:1007A00000200146704730B50B460146002020224C
:1007B000012409E021FA02F59D4205D303FA02F56E
:1007C000491B04FA02F52844151EA2F10102F1DCCE
:1007D00030BD202A04DB203A00FA02F100207047E5
:1007E0009140C2F1200320FA03F31943904070476F
:1007F000202A04DB203A21FA02F00021704721FA76
:1008000002F3D040C2F120029140084319467047DC
:10081000202A06DBCB17203A41FA02F043EAE071C6
:10082000704741FA02F3D040C2F1200291400843E0
:10083000194670470029A8BF7047401C490008BFEF
:1008400020F00100704710B4B0FA80FC00FA0CF000
:1008500050EA010404BF10BC704749B1CCF1200438
:1008600021FA04F411FA0CF118BF012121430843C5
:10087000A3EB0C01CB1D0106000A002BBEBF00201C
:1008800010BC704700EBC35010440029A4BF10BC3B
:100890007047401C490008BF20F0010010BC7047A1
:1008A00010B5002B08DA401C41F1000192185B41A1
:1008B0001A4301D120F0010010BD2DE9F04D924600
:1008C0009B4611B1B1FA81F202E0B0FA80F2203217
:1008D0009046FFF77EFF06460F4640EA0A0041EACF
:1008E0000B0152465B46084303D130463946BDE80A
:1008F000F08D194652EA010015D0C8F14002504669
:10090000FFF776FF04460D46504659464246FFF72C
:1009100060FF084301D0012000E00020044345EAC5
:10092000E07526432F430A984FEAD625A0EB08002E
:100930000A304FEA46534FF0000245EA47554FEA66
:10094000D72402D500200146D1E7010550196141A5
:10095000DDE9084500196941BDE8F04DA0E7000058
:10096000064C074D06E0E06840F0010394E80700FC
:1009700098471034AC42F6D3FFF7DEFB307900081D
:100980005079000870B501EB020410F8015B15F016
:10099000070301D110F8013B2A1106D110F8012BF1
:1009A00003E010F8016B01F8016B5B1EF9D12B0716
:1009B00005D40023521E0FD401F8013BFAE710F8CA
:1009C000013B02F10202A1EB030303E013F8015B18
:1009D00001F8015B521EF9D5A142D6D3002070BDAB
:1009E00070477047C943016070470029816802D091
:1009F00041F0010101E021F0010181607047000038
:100A000000B585B04FF0000000908DF804008DF81F
:100A100005004FF4602002904FF0000003904FF06B
:100A200001008DF8100000F0A1F86946044800F0BC
:100A300035F801210248FFF7D8FF05B000BD0000DE
:100A400000240140C06C80B270470246126800204A
:100A50000A4200D00120704770B502460C464FF0A4
:100A600000031D46194600BF10E032F811009842FD
:100A700003DD1D4632F8113005E032F81100A842BE
:100A800001DD32F8115001F1010081B2A142ECDB2D
:100A90005E1906EBD670C0F34F0070BD30B54268EA
:100AA0000E4B0C791A400B6842EA04221343436050
:100AB00082680B4B4D791A40D1E9024342EA450264
:100AC000234313438360C26A097C22F47002491EE7
:100AD000C9B242EA0151C16230BD0000FFFEF0FF21
:100AE000FDF7F1FF70B5072609290AD9C568A1F1FC
:100AF0000A0404EB4404A640B543A3401D43C5606B
:100B000007E0056901EB4104A640B543A3401D433E
:100B100005611F23072A09D2446B521E02EB820291
:100B200093409C4391400C43446370BD0D2A09D20D
:100B3000046BD21F02EB820293409C4391400C4312
:100B4000046370BDC46A0D3A02EB820293409C4379
:100B500091400C43C46270BD0029816802D041F409
:100B6000A00101E021F4A00181607047064900283E
:100B7000D1F8080402D040F4000001E020F40000A5
:100B8000C1F80804704700000020014070B58EB025
:100B900006464FF000000A900B900C900D90054611
:100BA0000090019004462AE0092001F0F7FE4FEA88
:100BB00084017E4A22F811004FF00B0001F0EEFE96
:100BC0004FF0010101EB8401784A22F811004FF047
:100BD0000C0001F0E3FE4FF0020101EB8401734AC7
:100BE00022F811004FF00D0001F0D8FE4FF0030184
:100BF00001EB84016D4A22F8110004F10104142C68
:100C0000D2D34FF000040EE04FF000000AA941F8E3
:100C1000240006A941F824004FF6FF7002A941F80C
:100C2000240004F10104042CEED34FF000043DE055
:100C30004FF0000536E006EB45004FEA840130F83E
:100C400011000AA951F8251008440AA941F8250005
:100C500006EB45004FEA840130F8110006A951F86F
:100C60002510884208D906EB45004FEA840130F888
:100C7000110006A941F8250006EB4500A10030F857
:100C8000110002A951F82510884208D206EB450050
:100C90004FEA840130F8110002A941F8250005F15E
:100CA0000100C5B2042DC6DB04F10104142CBFD32E
:100CB00006990A98A0EB01000299A0EB01004FF001
:100CC0001201B0FBF1F03A49088007990B98A0EBAC
:100CD00001000399A0EB01004FF01201B0FBF1F00D
:100CE0003349488008990C98A0EB01000499A0EBC7
:100CF00001004FF01201B0FBF1F080B2ADF804003A
:100D000009990D98A0EB01000599A0EB01004FF0A7
:100D10001201B0FBF1F080B2ADF806002548007872
:100D2000B0B94FF00100234908704FF000040CE007
:100D3000BDF80400204921F81400BDF806101E4833
:100D4000143020F8141004F101040A2CF0D31DE033
:100D50004FF0000410E0184904F1010031F81000D0
:100D600021F8140001F1140004F1010130F8111010
:100D700020F8141004F10104092CECD3BDF8040090
:100D80000D494882BDF806100B48C1840A210A4863
:100D9000FFF762FE064988800A2107481430FFF7F2
:100DA0005BFE0349C8800EB070BD000064120020D5
:100DB00020030020190A00202C18002000BFFEE7A5
:100DC00010B528480078012805D100F091FE4FF0B9
:100DD0000000244908702448008800B32248008895
:100DE00022490988084020490988884217D004F020
:100DF00079FE1F4800784FF49671484300F59670CD
:100E00001C49098888421CD1174800881749088066
:100E10004FF00000184908701649088011E0124888
:100E2000008840B94FF0000010490880124908704E
:100E30001049088005E04FF000000F4908700D4987
:100E400008800E48007858B90D480078012807D16D
:100E50000948007820B90B48007808B901F074F906
:100E600010BD000060030020C0030020C20300206A
:100E7000C4030020C80300204E0300204F030020BD
:100E800045030020500300207047704770477047AB
:100E90007047704770477047704770477047002928
:100EA000016802D041F0010101E021F0010101607F
:100EB0007047000000B58BB0154800F02FF81548BA
:100EC0000090154801904FF0000002904FF0500044
:100ED00003904FF0000004904FF0800005904FF415
:100EE000807006904FF4806007904FF020000890CB
:100EF0004FF4005009904FF000000A9069460448F2
:100F000000F07CF801210248FFF7C9FF0BB000BDDB
:100F1000080002404C2401406412002002680021B5
:100F200022F001020260016041608160C160304BCB
:100F30002F49C21A8039984245D018DC2D4BA0EBBE
:100F40000302984237D00ADC2B4A80182BD0142891
:100F50002DD0282826D1486840F4706036E0142A45
:100F60002DD0282A1ED1486840F470002EE0B2F53A
:100F70006C7F32D00ADCB2F5627F29D0B2F5677F90
:100F800010D1D1F8040440F0F00009E0B2F5717F0F
:100F900028D0B2F5767F05D1D1F8040440F4702052
:100FA000C1F804047047486840F00F000EE048683C
:100FB00040F0F0000AE0486840F4704006E04868FD
:100FC00040F4702002E0486840F07060486070476C
:100FD000D1F8040440F00F00E2E7D1F8040440F433
:100FE0007060DDE7D1F8040440F47040D8E70000F9
:100FF0008000024044000240F8FFFDBF70B5026867
:1010000047F6F0739A430E6A8B680C693343D1E953
:1010100005562C432343CC6933432343D1E9095478
:101020002B43234313430360CA6842600A6882600B
:101030004968C16070BD704710B504464FF00100AB
:1010400005F0AEFA0648048000BF05480088002875
:10105000FBD1801E05F0A4FA002005F0A1FA10BD16
:101060000000002070477047704770477047704716
:101070007047000010B54FF0000400BF1BE00F48A0
:10108000005DAA280CD10E48005DAA2810D00021CE
:10109000204604F039F84FF0AA000949085507E046
:1010A0000748005DAA2803D14FF000000449085505
:1010B00004F1010084B2142CE1DB10BD04180020FF
:1010C000181800207047000004490A6822F0100236
:1010D0000A600A6802430A6070470000002002406C
:1010E00004490A6802F038020A600A6802430A608A
:1010F000704700000020024010B510211E4800F08B
:10110000A1FA4FF0000401E004F10104B4F57A7F84
:10111000FADB1021184800F093FA4FF0000401E0C8
:1011200004F10104B4F57A7FFADB062004F00CFC2C
:101130001021114800F086FA4FF0000401E004F19C
:101140000104B4F57A7FFADB10210B4800F078FA3D
:101150004FF0000401E004F10104B4F57A7FFADBFA
:10116000012004F0F1FB402004F0EEFB10210248C6
:1011700000F068FA10BD0000000801402DE9F041C0
:1011800005460E4617464FF000044FF010011D486B
:1011900000F058FA00BF01E004F10104B4F5487F03
:1011A000FADB1021174800F04BFA4FF0000401E081
:1011B00004F10104B4F5487FFADB032004F0C4FB1A
:1011C000C5F3072004F0C0FBE8B204F0BDFB4FF00C
:1011D000000407E0002004F0B7FB307006F10106C0
:1011E00004F10104BC42F5D34FF0000401E004F126
:1011F0000104B4F57A7FFADB1021024800F022FAEC
:10120000BDE8F081000801402DE9F04105460E4699
:1012100017464FF000044FF010012A4800F012FA70
:1012200000BF01E004F10104B4F5487FFADB1021AE
:10123000244800F005FA4FF0000401E004F1010435
:10124000B4F5487FFADB062004F07EFB10211D4830
:1012500000F0F8F94FF0000401E004F10104B4F5E6
:10126000487FFADB1021174800F0EAF94FF000043C
:1012700001E004F10104B4F5487FFADB022004F038
:1012800063FBC5F3072004F05FFBE8B204F05CFBEE
:101290004FF0000406E0307804F056FB06F101063A
:1012A00004F10104BC42F6D31021064800F0CAF94B
:1012B0004FF0000401E004F10104B4F57A7FFADB99
:1012C000BDE8F081000801407047000008B5012129
:1012D000022000F083F90121042000F07FF94FF093
:1012E0004000ADF800004FF018008DF803004FF0FB
:1012F00003008DF8020069468B4800F01FF94FF09B
:101300008000ADF800004FF048008DF803006946FA
:10131000854800F013F941F6F040ADF800004FF0B9
:1013200010008DF803004FF003008DF802006946AD
:101330007E4800F003F94FF03800ADF800004FF0A0
:1013400010008DF803004FF003008DF8020069468D
:10135000754800F0F3F84FF40840ADF800004FF086
:1013600010008DF803004FF003008DF8020069466D
:101370006F4800F0E3F84FF00400ADF800004FF0C4
:1013800010008DF803004FF003008DF8020069464D
:10139000684800F0D3F84FF44070ADF800004FF00B
:1013A00048008DF803004FF003008DF802006946F5
:1013B0005E4800F0C3F84FF48050ADF800004FF0E5
:1013C00048008DF803004FF003008DF802006946D5
:1013D000574800F0B3F84FF48050ADF800004FF0DC
:1013E00048008DF803004FF003008DF802006946B5
:1013F0004D4800F0A3F84FF00400ADF800004FF0A6
:1014000003008DF802004FF018008DF803006946C4
:10141000474800F093F84FF00800ADF800004FF097
:1014200048008DF803006946414800F087F84FF402
:101430008060ADF800004FF003008DF802004FF01F
:1014400018008DF803006946374800F077F84FF42C
:101450000060ADF800004FF048008DF803006946C9
:10146000314800F06BF84FF01200ADF800004FF07B
:1014700010008DF803004FF003008DF8020069465C
:101480002B4800F05BF84FF44070ADF800004FF0CF
:101490001C008DF803006946234800F04FF84FF018
:1014A000E000ADF800004FF018008DF803004FF099
:1014B00003008DF8020069461D4800F03FF84FF028
:1014C0000200ADF800004FF000008DF803006946FF
:1014D000164800F033F84FF00400ADF800004FF06C
:1014E00000008DF803006946104800F027F84FF01F
:1014F0000800ADF800004FF000008DF803006946C9
:101500000A4800F01BF84FF00200ADF800004FF061
:1015100000008DF803006946034800F00FF8012130
:10152000054800F05BF808BD000C014000100140C8
:10153000000801400014014000023000F0B5CB78F3
:101540000022DC0603F00F0301D58C7823430C88BE
:101550000F2714F0FF0F4FF0010C1CD0D0F80050F3
:101560000E880CFA02F42640A64210D1960007FA23
:1015700006FE25EA0E0E03FA06F5CE7845EA0E05BC
:10158000282E00D14461CE78482E00D10461521C2F
:10159000082AE5D305600A88FF2A1ED9456800227B
:1015A00002F108060CFA06F40E882640A64210D175
:1015B000960007FA06FE25EA0E0E03FA06F5CE7827
:1015C00045EA0E05282E00D14461CE78482E00D180
:1015D0000461521C082AE3D34560F0BDF0B5104DFC
:1015E0006B68440D260184B2C0F30157B440C0F3C8
:1015F0000342032F06D1686823F0706220F0706008
:10160000686008E0C00203D503209040834300E0F7
:10161000A34343F0706201B122436A60F0BD000051
:10162000000001400246926800200A4200D00120DA
:1016300070470246D26800200A4200D0012070475D
:1016400041617047016170470AB1016170474161B2
:10165000704700002DE9F04105464FF000073C4679
:1016600026464FF001009B4908704FF014009A493C
:101670000880F52D06D19948007818B9984805706A
:10168000BDE8F081FA2D11D195480078F5280DD1EB
:101690009248007850B9924845704FF00200914945
:1016A00008804FF001008D490870E9E78B48007809
:1016B00000287DD18B4908808949087048708A4884
:1016C0008A49097845548948007800F10100874922
:1016D000087008460078322802DB4FF000000870DE
:1016E0000D2D6AD181480078042866DB4FF0000098
:1016F0007D4988777D4908707D48006870B97DA173
:101700007948FEF78FFD48B14FF064007B490880AF
:101710004FF01E017448FEF779FD4EE078A1724843
:10172000FEF780FD48B14FF00100774908704FF097
:101730001E016D48FEF76AFD3FE074A16A48FEF79E
:1017400071FD06001ED0307A2C2812D1B079A0F19C
:10175000300000EB80004FEA40604FEA10606D49B6
:101760000870F079A0F130000978084469490870E0
:1017700023E0F0792C2820D1B079A0F13000654920
:1017800008701AE064A15848FEF74CFDA8B14FF06C
:101790000100634908704FF47A704F4908804FF098
:1017A000000060490880604908706049087000E0E6
:1017B00004E04FF03C005E49088061E74848494931
:1017C000098845544748008800F1010045490880D0
:1017D00008460088032800DA52E74148807800F183
:1017E0000504B4F5807F07DD4FF000003D49088017
:1017F0003B490870487043E73A480088A04266DBDE
:1018000037488078401DC1B2354805F03FFF074694
:10181000F7BB3348C078802853DB4FF0640037496A
:1018200008802F48C078FA2815D14248008818B996
:101830004FF0B400404908803E48008800F10100A4
:101840003C4908800846008803283ADB4FF0010035
:101850003A49087035E04FF000040BE03848005D6D
:10186000AA2804D04FF0AA003549085504E004F135
:10187000010084B2032CF1DB00BF032C21D03149DD
:1018800001EB04204FF48071FEF7C0FC2D4900E00D
:101890000BE001EB04204FF480721149FEF79DFC30
:1018A0004FF00100284908700BE04FF07F002749F6
:1018B00008804FF00000264908804FF0AA00254913
:1018C000C8774FF00000054908700649088000BF3E
:1018D000D6E60000500300206E0300200300002025
:1018E000300A002004000020300B002006000020F9
:1018F0005403002053454E44204F4B005E0300200C
:10190000434C4F5345440000580300202B43535190
:101910003A000000440300202B434D54493A000094
:10192000740300207A030020750300207603002052
:1019300078030020800300207C0300207E03002029
:10194000A6030020D4140020600300208E03002092
:1019500090030020B41400203EB54FF00004204650
:101960004F4908804F48FEF773FC05462A464D490B
:101970004D4805F00FFB00BF04E001F0CFFD04F17E
:10198000010084B2022CF8DB4FF0000404E001F007
:10199000C5FD04F1010084B2022CF8DB4348FEF7D8
:1019A00057FC05462A4641493F4805F0F3FA4FF0F7
:1019B000000404E001F0B2FD04F1010084B2022C45
:1019C000F8DB3B48FEF744FC05462A4638493648D2
:1019D00005F0E0FA4FF0000404E001F09FFD04F18F
:1019E000010084B2022CF8DB4FF000002C49088083
:1019F0003048FEF72DFC05462A462E492A4805F0B8
:101A0000C9FA4FF0000404E001F088FD04F1010080
:101A100084B2052CF8DB2848FEF71AFC05462A4656
:101A20002549214805F0B6FA4FF0000404E001F022
:101A300075FD04F1010084B2052CF8DB1F48028813
:101A40001F48C17880788DE807001D4843780278E8
:101A50001CA1244805F04CFC22481038FEF7F8FB86
:101A600005462A461F4910390F4805F093FA4FF0F2
:101A7000000404E001F052FD04F1010084B23C2CAA
:101A8000F8DB4FF00100184908704FF000000449DE
:101A900008804FF480711548FEF7B8FB3EBD00008A
:101AA000040000201C0000200048004044000020EA
:101AB00080000020C60000203E0100209602002089
:101AC0009202002022253033642E253033642E25E7
:101AD0003033642E25303364222C222564220D00FD
:101AE00000000000A400002002000020300A0020B6
:101AF00010B58EB04FF0340101A8FEF787FB4FF010
:101B000000042046009000BFECE07948005DAA2860
:101B10007ED1784800EB0420C078F138072878D2CD
:101B2000DFE800F0041E2F435481AB00714800EB46
:101B30000420D0F805100191B0F80900ADF80800B4
:101B400001A804F007F94FF0F1006B4908804FF04D
:101B500000006A4908804FF0AA006949C877B9E0D7
:101B60004FF0AA00664908704FF0F2006249088001
:101B70004FF00000614908804FF0AA006049C87723
:101B8000A8E05C4901EB0421481D00F02DFF4FF057
:101B9000F300594908804FF00000584908804FF081
:101BA000AA0057494870C87794E04FF0AA005449FA
:101BB00048704FF0F400504908804FF000004F4942
:101BC00008804FF0AA004E49C87783E0494800EBEF
:101BD00004204079AA2808D14FF001004949087033
:101BE0004FF00000484908700DE0424800EB042027
:101BF0004079552807D14FF00000424908704FF056
:101C00000100414908704FF0F5003B49088001E0B0
:101C100065E05EE04FF00000384908804FF0AA0010
:101C20003749C87756E0334800EB04204079AA28AA
:101C300008D14FF00100354908704FF000003449D9
:101C400008700DE02B4800EB04204079552807D19F
:101C50004FF000002D4908704FF001002C4908702A
:101C60004FF0F600244908804FF000002349088017
:101C70004FF0AA002249C8772CE01E4800EB042050
:101C8000407903280FD14FF00000224908704FF02F
:101C900001000090024669461F48008800F10A00D2
:101CA000FFF7B2FA14E0134800EB0420407904284F
:101CB0000ED14FF00000194908704FF0010000905C
:101CC000024669461648008800F10A00FFF79CFAB0
:101CD00000E000BF00BF4FF000000549085504F1C7
:101CE0000100C4B2032CFFF610AF0EB010BD00000F
:101CF000A6030020D41400208E03002090030020AF
:101D0000B4140020A9030020AA030020AB03002084
:101D1000AC0300207203002088030020730300201E
:101D20008A0300203EB5E848007801287ED1E748C4
:101D3000008840BB4FF00100E5490870E548008885
:101D4000032804DC4FF06400E349088007E0E14821
:101D50000088052803D14FF00000DE490880DD48E7
:101D6000008800F10100DB4908804FF05A00D74994
:101D70000880DA48FEF76CFA04462246D749D8486C
:101D800005F008F99FE1D14800882D280FD1CF48F0
:101D90000088A0F10100CD490880D248FEF758FA2A
:101DA00004462246CF49CE4805F0F4F88BE1C748F7
:101DB00000882B280FD1C5480088A0F10100C34935
:101DC0000880C948FEF744FA04462246C649C4487A
:101DD00005F0E0F877E1BD48008829280FD1BB481D
:101DE0000088A0F10100B9490880C048FEF730FA28
:101DF00004462246BD49BA4805F0CCF863E1B34831
:101E00000088432823D1B1480088A0F10100AF49E0
:101E10000880B7480288B748C078B6498978CDE9C4
:101E200001020091B3484378027800E023E0B2A1B8
:101E3000B94805F05DFAB8481038FEF709FA0446CB
:101E40002246B5491039A64805F0A4F83BE19F4861
:101E50000088162896D14FF000009B4908709B48D7
:101E60000088A0F10100994908804FF00D01AB48AE
:101E700003F016FF27E1AA48007805287EDBA94871
:101E8000007800287AD1A8480068F02876D8A748BA
:101E900000880028F6D1A64800780028F2D18C48A6
:101EA00000780028EED1A048006800F00100012869
:101EB00040D1A048006868B99F48FEF7C9F90446B8
:101EC00022469D49864805F065F84FF03C00994947
:101ED00008603FE09748006837280BD14FF4006155
:101EE0009648FFF7ADFB93480068A0F101009149C7
:101EF00008602FE08F48006833280BD14FF4006151
:101F00008E48FFF79FFB8B480068A0F101008949CC
:101F100008601FE0874800682F281BD14FF400613C
:101F20008648FFF78DFB83480068A0F101008149D6
:101F300008600FE07F48006860B96848FEF788F9DC
:101F4000044622466549664805F024F84FF0230010
:101F5000784908607748006824280ED16148FEF768
:101F600077F9044622465F495D4805F013F8714849
:101F70000068A0F101006F49086000E097E06D483B
:101F8000006821280FD15848FEF762F9044622461E
:101F90005549534804F0FEFF66480068A0F101006F
:101FA000644908608FE0634800681E2821D15048CA
:101FB00002885048C0784F498978CDE901020091E4
:101FC0004C48437802784CA1534805F091F95248A7
:101FD0001038FEF73DF9044622464F491039404873
:101FE00004F0D8FF53480068A0F10100514908608F
:101FF00069E05048006819280FD15148FEF728F9C8
:10200000044622464E49364804F0C4FF4948006859
:10201000A0F101004749086055E0464800681728CC
:102020000FD14848FEF714F90446224645492C488A
:1020300004F0B0FF3F480068A0F101003D4908608E
:1020400041E03C48006815280FD12848FEF700F908
:10205000044622462549224804F09CFF3548006882
:10206000A0F10100334908602DE0324800681028D3
:102070000AD10D21294803F013FE2E480068A0F173
:1020800001002C4908601EE02A48006802281AD185
:102090004FF03200254908802348006800F1010014
:1020A000214908604FF064000B4908800BE01D488F
:1020B0000078012803D01C480068F02803D94FF0AD
:1020C00000001C4908603EBD580300205A03002050
:1020D000500300205C0300205E030020200100204C
:1020E00000480040C60000203E0100208000002083
:1020F000960200209202002022253033642E2530E3
:1021000033642E253033642E25303364222C22256F
:1021100064220D0000000000A40000201303002032
:102120004403002045030020480300204C03002006
:102130004E03002054030020F3000020000801405B
:10214000D000002044000020F0B5A7B04FF00004FC
:1021500026464FF0920102A8FEF758F8F9480068A9
:10216000019025462746F8488078AA2845D1F748A7
:102170000078002841D14FF00C008DF806004FF098
:1021800003008DF807004FF000008DF80800EE49BD
:102190008870EF480088C82804D9ED480088A0F16D
:1021A0000C0701E046F654574FF00100E74908706C
:1021B0004FF01E00E7490880E7490F804FF00C02FE
:1021C0000DF109013846FEF7D9FF9DF813000028EC
:1021D00012D105464FF00F0101A805F057FA054648
:1021E0004FEA15208DF81300E8B28DF814004FF077
:1021F000110101A803F054FDDAE1D3480078AA28C0
:102200007ED14FF025008DF806004FF0E1008DF8EB
:1022100007004FF000008DF80800044608E0CF48A2
:10222000015D04F1050001AA115404F1010084B21A
:10223000062CF4DBCA4800884FEA10208DF80F0006
:10224000C7480088C0B28DF81000C54840884FEAE2
:1022500010208DF81100C2484088C0B28DF81200DD
:10226000C04800788DF81300BE4840788DF81400FF
:102270004FF0000408E04FF0000104F1110001AA42
:10228000115404F1010084B2042CF4DBB648007848
:102290008DF81900B44840788DF81A004FF000040A
:1022A00008E04FF0000104F1170001AA115404F1F5
:1022B000010084B2042CF4DBAC4800884FEA102003
:1022C0008DF81F00A9480088C0B28DF820004FF09B
:1022D000000408E04FF0000104F11D0001AA1154B0
:1022E00004F1010084B20B2CF4DB282101A805F0D5
:1022F000CDF905464FEA15208DF82C00E8B200E034
:102300000BE08DF82D004FF02A0101A803F0C8FC66
:102310004FF000008C4908704AE18B484078AA28A9
:1023200073D14FF066008DF806004FF0E2008DF893
:1023300007004FF000008DF80800044629E08C48A3
:1023400030F814004FEA10214FEA840000F1050034
:1023500001AA1154864830F81400C1B24FEA840033
:1023600000F106001154834830F814004FEA1021A0
:102370004FEA840000F1070011547E4830F8140041
:10238000C1B24FEA840000F10800115404F10100C9
:1023900084B2022CD3DB4FF0000408E04FF00001C0
:1023A00004F10D0001AA115404F1010084B2082CBB
:1023B000F4DB714800788DF81800704800788DF8CB
:1023C00019004FF000008DF81A008DF81B0004462C
:1023D00008E06B48015D04F1180001AA115404F1F2
:1023E000010084B2022CF4DB4FF0000408E06548E1
:1023F000015D04F11A0001AA115404F1010084B234
:10240000022CF4DB4FF000041CE041E04FF000062A
:1024100013E0C4EBC4005C4901EB400106F102008B
:10242000095C04EB44004FEA800000F11C003044DA
:1024300001AA115406F1010086B20C2EE9DB04F169
:10244000010084B2052CE1DB4FF0000408E04FF0FE
:10245000000104F1580001AA115404F1010084B2F2
:10246000102CF4DB692101A805F010F905464FEAAC
:1024700015208DF86D00E8B28DF86E004FF06B01FD
:1024800001A803F00DFC4FF000002F4948708FE0C9
:1024900030480088002847D13C4800882C490988EA
:1024A000884241D03A480078F0BB4FF00C008DF8DC
:1024B00006004FF004008DF807004FF000008DF883
:1024C0000800044671E031480088C82804D32F482A
:1024D0000088B0F5EB6F03D34FF0C8002B4908809C
:1024E0002A4800881A490988884200D15FE00C22F6
:1024F0000DF1090125480088FEF740FE9DF8130004
:10250000012849D00F2101A805F0C0F805464FEA7F
:1025100015208DF81300E8B28DF814004FF011016A
:1025200001A803F0BDFB00E042E04FF001001849B4
:1025300008704FF01E0007490880144800881549AC
:10254000088034E018790008B414002072030020D9
:102550008403002070030020880300208C020020E8
:102560003A0300203E0300204003002042030020E5
:10257000AE030020B2030020BA030020BB030020FA
:10258000B6030020B8030020CD0200208C030020F9
:10259000730300208A0300200C48008800F10C001F
:1025A0000A49088004F1010084B2052C8BDB00BFCE
:1025B0000748008840B94FF0AA008DF804004FF09A
:1025C000010101A803F06CFB27B0F0BD8C030020D3
:1025D0006A03002070B58EB04FF000052C464FF016
:1025E000340101A8FDF712FECE4800883A280FD129
:1025F000CC480088A0F10100CA490880CA48FDF70C
:1026000027FE06463246C849C84804F0C3FC87E1A5
:10261000C448008838280FD1C2480088A0F10100C2
:10262000C0490880C248FDF713FE06463246C0493D
:10263000BE4804F0AFFC73E1BE480078012879D1B0
:10264000BD4800780028FAD1B6480088322871DDEC
:10265000BAA1BC48FDF7E6FD050021D0BAA1B948F2
:10266000FDF7E0FD05001BD04FF02200B7490870D0
:102670004FF0030407E0295DA4F10200B34A1154AE
:1026800004F1010084B2285D2228F4D10146A4F1AE
:102690000200AE4A11544FF00D01A4F10100115493
:1026A000ABA1A848FDF7BEFD05007DD04FF00004AA
:1026B00000BF12E004F10A00285C302804DB04F1BA
:1026C0000A00285C392805DD04F10A00285C2E2860
:1026D00000D004E004F1010084B2202CEADB00BF4A
:1026E000202C67D14FF0000407E004F10A00285CB9
:1026F00001A9085504F1010084B20C2CF5DB4FF060
:10270000000412E001A911F8140000F00F014FEAD3
:10271000440000F1010001AA105C61F31F1004F1F4
:102720001401505404F1010084B2062CEADB4FF08E
:1027300000040BE051E004F1140001A9095C04F16C
:102740000200864A115404F1010084B2062CF2DB27
:102750004FF0EE008DF81E004FF0000408E004F189
:10276000140001A9095C04F1010001AA115484B20A
:10277000072CF4DB9DF81800000904D04FF001008D
:102780008DF8040003E04FF000008DF804000822EB
:1027900001A90020FEF738FD082201A97820FEF7E4
:1027A00033FD082201A900E009E040F28570FEF740
:1027B0002BFDB5E04FF01C005A490880B0E068A13D
:1027C0006048FDF72FFD050002D001F007FAA7E0F1
:1027D0004FF01C0053490880A2E05248008830287E
:1027E00016D154480078012812D15348007878B99E
:1027F0004C480088A0F101004A4908805D48FDF777
:1028000027FD064632465B49484804F0C3FB87E093
:10281000444800882E2816D146480078012812D155
:102820004548007878B93F480088A0F101003D494B
:1028300008804648FDF70CFD0646324643493B48B2
:1028400004F0A8FB6CE0374800882C2813D13948E5
:10285000007801280FD13848007860B931480088E5
:10286000A0F101002F4908804FF0080242A12F4833
:1028700004F090FB54E02B4800882A2812D12D4800
:10288000007801280ED12C48007858B925480088D6
:10289000A0F10100234908804FF01A01234804F0F9
:1028A0008DFB3DE01F48008819280FD11D48008886
:1028B000A0F101001B4908803248FDF7C9FC06461B
:1028C00032463049194804F065FB29E01548008874
:1028D00016280FD113480088A0F101001149088083
:1028E0002948FDF7B5FC0646324627490F4804F053
:1028F00051FB15E00B480088142811DA4FF0000056
:102900000C490870214908700B490870204908805B
:102910004FF001001F4908704FF03C001E4908802D
:102920000EB070BD78030020D000002000440040AD
:102930002F01002076030020750300202B434D4714
:10294000523A000010130020222C2200A014002074
:102950000D0A313233343536373800001303002086
:102960000D0A38373635343332313031323334357D
:10297000363738006C000020736574204F4B0D0A09
:102980000000000080000020580000207403002098
:102990007A030020580300206E03002070B504461F
:1029A0004FF000054FF007034FF0010221460D489C
:1029B000FEF798F802210B48FEF714F801210948A8
:1029C000FEF7CAF84FF47A7501E0A5F1010502217E
:1029D0000448FEF73AF808B9002DF6D10148FEF791
:1029E00031F870BD0024014070B504464FF0000579
:1029F0006078217840EA012033490880E078A178A6
:102A000040EA0120314908806079217940EA0120BB
:102A10002D494880E079A17940EA01202B4948807E
:102A2000207C00F00F00217CB0EB111F02D1207C34
:102A300027490870607C00F00F00617CB0EB111F2B
:102A400002D1607C23490870207DAA2800D101E0D2
:102A50004FF0550020490870607DAA2800D101E0A0
:102A60004FF055001C494870A07DAA2800D101E014
:102A70004FF0550019490870E07DAA2800D101E007
:102A80004FF05500154948704FF0000516E0C5EBB2
:102A9000C500134901EB400104F118004FF00C028E
:102AA00002FB05000268C1F802204268C1F8062056
:102AB0008068C1F80A0005F1010085B2052DE6DB4A
:102AC00004F094FA70BD0000AE030020B2030020B1
:102AD000BA030020BB030020B6030020B803002087
:102AE000CD02002010B504461B48007890BB4FF083
:102AF00001001949087004F105014FF0000000F0D1
:102B000003FB4FF0000014490870607948B9A079C0
:102B100038B9E07928B9207A18B9607A08B9A07A6A
:102B200088B16079FF2815D1A079FF2812D1E0790A
:102B3000FF280FD1207AFF280CD1607AFF2809D115
:102B4000A07AFF2806D100F049FC0A20FEF774FAAB
:102B500001F0A6FE10BD0000BC0300202DE9F04FDF
:102B600089B0FE480078012813D11021FC48FEF7F7
:102B700060FD70B91021FA48FEF764FDFDF740FFD3
:102B80004FF00500F74908804FF00000F649087043
:102B90001FE0F248007801281BD11021F048FEF711
:102BA00048FD012815D1F0480078012811D1EF48DF
:102BB000FDF7ECFF4FF00000E8490870EA490870A3
:102BC0004FF01001E648FEF73BFD0021E848FDF715
:102BD0000CFFE8480078012811D12021E048FEF7D9
:102BE00028FD60B92021DE48FEF72CFD4FF00300E0
:102BF000E14908804FF00000E049087032E0DD480C
:102C0000007801282ED12021D548FEF712FD012899
:102C100028D1DA480078012824D1D9480088022830
:102C200004D14FF0AA00D749087003E04FF05500D7
:102C3000D4490870D4480088022804D14FF0AA0073
:102C4000D049487003E04FF05500CE4948704FF02E
:102C50000000C8490870C94908704FF02001C048F9
:102C6000FEF7EEFC8021BE48FEF7E3FC20B94FF0F2
:102C70005500C649087009E08021B948FEF7D9FC23
:102C8000012803D14FF0AA00C04908704021B44880
:102C9000FEF7CFFC20B94FF05500BC49487009E061
:102CA0004021AF48FEF7C5FC012803D14FF0AA0030
:102CB000B6494870B648008810B94FF0010001E0ED
:102CC000B3480088B2490880B2490868FDF755FD4D
:102CD00004460D46B0490868FDF74FFD8046894619
:102CE000AB490888FDF725FD064632460B46AB4842
:102CF000AB49FDF7A6FCCDE90201A5494888FDF7DF
:102D000018FDCDE90001DDE90223FDF72AFC42466A
:102D10004B46CDE90401FDF724FC22462B46CDE9C4
:102D20000601FDF778FB8246FDF710FD9D490880FE
:102D300098494868FDF721FDCDE9060196494868A4
:102D4000FDF71BFDCDE9020191490888FDF7F1FC73
:102D5000804642460B4691489149FDF772FC044675
:102D60000D468B498888FDF7E4FC064622462B4633
:102D7000FDF7F7FBCDE90001DDE90223FDF7F1FBEB
:102D8000CDE90401DDE90623FDF745FB8246FDF7A9
:102D9000DDFC854908807F498868FDF7EEFC044624
:102DA0000D467D498868FDF7E8FC804689467849EC
:102DB0000888FDF7BEFC02460B46CDE900017748C6
:102DC0007749FDF73EFCCDE904017149C888FDF75C
:102DD000B0FCCDE90201DDE90423FDF7C2FB824628
:102DE00042464B46FDF7BDFB064622462B46FDF705
:102DF00012FBCDE90601FDF7A9FC6B494880694843
:102E0000008843F6865188420EDD4FF0AA006749DC
:102E100008704FF00100664908706648008840F06D
:102E200002006449088011E05E48008843F698215A
:102E300088420BDC4FF000005C4908705C49087068
:102E40005C48008820F002005A49088055480088F4
:102E500042F21C5188420EDA4FF0AA0053494870E2
:102E60004FF00200524948705248008840F001007B
:102E70005049088011E04B48008842F210718842A6
:102E80000BDB4FF0000049494870494948704948F8
:102E9000008820F00100474908804348008840F638
:102EA0004E41884204DC40480088B0F5AB7F0EDA22
:102EB0004FF0AA003D4988704FF003003C498870EC
:102EC0003C48008840F004003A49088016E0364843
:102ED0000088B0F5B47F11DB3348008840F6B83184
:102EE00088420BDC4FF00000304988703049887010
:102EF0003048008820F004002E4908802A48408885
:102F000040F64E41884204DC27484088B0F5AB7F4C
:102F10000EDA4FF0AA002549C8704FF0040024498A
:102F2000C8702448008840F008002249088045E025
:102F30001D484088B0F5B47F40DB1B48408840F610
:102F4000B83188423ADC4FF000001849C87018497F
:102F5000C8701848008820F008002DE034030020D5
:102F6000001001409403002036030020641200206A
:102F700000240140350300209A030020370300207D
:102F8000A20300203E030020A403002040030020F1
:102F90002003002004130020280300205C8FC2F5CA
:102FA000A8AAAA40420300203A03002004180020E7
:102FB0009D030020C0030020484908804849088834
:102FC000FDF7B7FB0646474A474BFDF7CAFA0446EA
:102FD000FDF7BCFB80B24549098888420ADA4448BB
:102FE0000078AA2806D13D48008840F010003B49EF
:102FF000088005E03948008820F010003749088033
:103000003C490888FDF795FB06464FF066323A4B7F
:10301000FDF7A7FA0446FDF799FB80B2334909880A
:1030200088420ADB32480078AA2806D12B4800885B
:1030300040F020002949088005E02848008820F059
:1030400020002649088026494888FDF772FB06467D
:10305000244A254BFDF785FA0446FDF777FB80B23D
:103060002249498888420ADA21484078AA2806D1AC
:103070001A48008840F040001849088005E01748C9
:10308000008820F04000154908801A494888FDF75B
:1030900050FB06464FF06632174BFDF762FA0446C6
:1030A000FDF754FB80B21149498888420ADB104879
:1030B0004078AA2806D10948008840F080000749D6
:1030C000088005E00548008820F08000034908805A
:1030D000FDF7D0FF09B0BDE8F08F0000C00300206D
:1030E000AE030020CDCCCCCCCCCCF03F3A030020BA
:1030F000B6030020B20300206666EE3F00BFFEE785
:1031000070477047704770472DE9FC4107460E46EF
:103110004FF001044FF000054FF000084FF000049D
:1031200005E04FF000000DF8040004F10104072C45
:10313000F7D3002C75D00121614800F02FF944F637
:1031400020644FF001015E4800F070F95D4800888E
:10315000C5B201E0A4F101045B49594800F028F927
:1031600008B9002CF6D1002C70D044F620644FF042
:1031700000024FF06401524800F0C6F901E0A4F1EA
:10318000010452494E4800F013F908B9002CF6D159
:10319000002C6BD044F620643946494800F0BCF955
:1031A00001E0A4F101044949891C454800F000F9F7
:1031B00008B9002CF5D1002C55D044F620644FF00E
:1031C00001013F4800F032F901E0A4F101043E4959
:1031D0003B4800F0EDF808B9002CF6D1002C3FD0A8
:1031E00044F620644FF001024FF06401344800F0CF
:1031F0008BF901E0A4F101043349491C304800F087
:10320000D7F808B9002CF5D13CB34FF0000521E008
:1032100044F62064062D03D10021294800F0BEF8B1
:1032200002E029E0A4F1010427493F31244800F0DD
:10323000BFF808B9002CF5D12CB122480088C0B2E3
:103240000DF8050003E04FF0A70805E011E005F1D7
:103250000100C5B2072DDBDB10E04FF0A6080DE042
:103260004FF0A5080AE04FF0A40807E04FF0A308CC
:1032700004E04FF0A20801E04FF0A108012110483E
:1032800000F0DEF80CB900F0A9F84FF0000511E0ED
:10329000032D05DA1DF80500A6EB0501087006E010
:1032A000032D04DD1DF80500A6EB0501487005F1AE
:1032B0000100C5B2072DEBDB4446BDE8FC810000F0
:1032C0000054004010540040010003008200070039
:1032D00070B505460E464FF0010421462B4800F01C
:1032E0005DF80121294800F0A1F82948048844F636
:1032F000206401E0A4F101042649244800F058F8B4
:1033000008B9002CF6D1002C36D049F640444FF0D5
:1033100000024FF064011D4800F0F6F801E0A4F14E
:1033200001041D49194800F043F808B9002CF6D1F2
:1033300014B344F620642946144800F0EDF801E087
:10334000A4F101041449891C104800F031F808B9AF
:10335000002CF5D184B144F6206431460B4800F0CE
:10336000DBF801E0A4F101040B49891C074800F0D7
:103370001FF808B9002CF5D10121044800F060F8CD
:103380000CB900F02BF8204670BD0000005400403E
:10339000105400400100030082000700002901884A
:1033A00002D041F4806101E021F480610180704726
:1033B0000246938A0020128B43EA024323F07F42A5
:1033C0008A4200D1012070470029018802D041F0D3
:1033D000010101E021F00101018070471FB50021CA
:1033E0001048FFF7F1FF4FF00000ADF800004BF67A
:1033F000FF70ADF802004FF06400ADF804004FF428
:103400008060ADF806004FF48040ADF80800064833
:1034100003906946034800F01DF801210148FFF7B9
:10342000D3FF1FBD00540040400D03000029018858
:1034300002D041F4807101E021F480710180704775
:103440000029018802D041F4007101E021F40071EB
:103450000180704770B50446808886B00D4620F024
:103460003F0601A801F042F925490398B0FBF1F1AC
:1034700089B20E43A680228822F001022280214BCD
:10348000EA689A421CD85200B0FBF2F080B20428DD
:1034900000D20420491C2184A083208840F0010030
:1034A000208020884FF6F53108402988EA881143AA
:1034B000014321802889A9880843208106B070BD76
:1034C0006B88A3F53F46FF3E05D102EB4202B0FBFD
:1034D000F2F080B206E019235A43B0FBF2F080B25A
:1034E00040F48040020501D140F001004FF4967293
:1034F00051434FF47A72B1FBF2F140F40040C9E756
:1035000040420F00A086010012B141F0010101E02C
:1035100001F0FE01018270470182704770B54FF0E3
:1035200000052C46C448008822287DDAC249088854
:103530004FEAE07100EB91714FEAA101B0EB81011C
:1035400006D0012958D002296FD0032953D1FEE0BB
:103550002021BA48FEF774F84FF0000533E04FF42D
:103560000041B748FEF76CF8B648B3490988405C9B
:10357000C5F107024FF0010101FA02F1084205D03E
:103580004FF40061B048FEF75DF804E04FF40061CD
:10359000AD48FEF755F84FF0000402E004F10100D9
:1035A00084B2032CFADB4FF40041A548FEF74AF839
:1035B0004FF0000402E004F1010084B2032CFADBB6
:1035C00005F1010085B2082DC9DB04219F48FEF7F3
:1035D00039F84FF480619C48FEF732F84FF0000450
:1035E00002E004F1010084B2032CFADB4FF48061A5
:1035F0009548FEF727F8FEE04FF0000536E04FF45F
:1036000000418F48FEF71CF88E488B490988405CC2
:10361000C5F107024FF0010101FA02F1084208D09A
:103620004FF40061884801E000E13CE0FEF70AF851
:1036300004E04FF400618448FEF702F84FF0000404
:1036400002E004F1010084B2032CFADB4FF40041E4
:103650007B48FDF7F7FF4FF0000402E004F10100A2
:1036600084B2032CFADB05F1010085B2082DC6DB1C
:1036700008217248FDF7E6FF04217448FDF7E0FFDA
:103680004FF480617048FDF7DBFF4FF0000402E06B
:1036900004F1010084B2032CFADB4FF480616A4824
:1036A000FDF7D0FFA7E04FF0000533E04FF40041F5
:1036B0006348FDF7C5FF63485F490988405CC5F171
:1036C00007024FF0010101FA02F1084205D04FF460
:1036D00000615D48FDF7B6FF04E04FF400615A4811
:1036E000FDF7AEFF4FF0000402E004F1010084B2E8
:1036F000032CFADB4FF400415148FDF7A3FF4FF0D4
:10370000000402E004F1010084B2032CFADB05F1AD
:10371000010085B2082DC9DB10214848FDF792FF52
:1037200008214648FDF78CFF4FF480614648FDF7BD
:1037300087FF4FF0000402E004F1010084B2032C83
:10374000FADB4FF480614048FDF77CFF53E04FF017
:10375000000533E04FF400413948FDF771FF394867
:1037600035490988405CC5F107024FF0010101FAB3
:1037700002F1084205D04FF400613348FDF762FFC3
:1037800004E04FF400613048FDF75AFF4FF00004A9
:1037900002E004F1010084B2032CFADB4FF4004193
:1037A0002748FDF74FFF4FF0000402E004F101004D
:1037B00084B2032CFADB05F1010085B2082DC9DBC8
:1037C00020211E48FDF73EFF10211C48FDF738FF61
:1037D0004FF480611C48FDF733FF4FF0000402E016
:1037E00004F1010084B2032CFADB4FF48061164827
:1037F000FDF728FF00BF00BF0F48008800F101005F
:103800000D4908804FF0C800FDF716FC00BF4FF4CB
:1038100080510D48FDF70DFFC0F10100C6B23246E0
:103820004FF480510848FDF70FFF03E04FF0000010
:103830000149088070BD00001A0A0020000C0140F8
:1038400000080140F4780008001001400014014015
:1038500000BFFEE72DE9FF4107464FF000052E4669
:10386000284600900190029003900446804600BFD5
:1038700018E0C5EBC500984901EB4000407BEE28FD
:103880000DD106F10100C6B2A7F596704FF49671FE
:1038900090FBF1F1A6F10100814200D104E005F1B5
:1038A0000100C5B2052DE4DB00BF052D01D1BDE847
:1038B000FF81C5EBC500884911F8100030284AD1B6
:1038C000C5EBC50001EB40004078302843D14FF0F4
:1038D00000061EE0C5EBC5007F4901EB40014FEA41
:1038E000460000F10300085C0DF81600C5EBC500AA
:1038F000794901EB40014FEA460000F10200095C02
:103900004FEA460000F101000DF8001006F1010039
:10391000C6B2062EDEDB4FF046008DF80A006A467E
:103920006EA1704803F0E4FC6FA16E480C3003F008
:10393000DFFC4FF000046B4901F1140101EB44007E
:103940006B4A6CA103F0D4FC6948FCF781FC04EBE2
:10395000500084B242E04FF000061BE0C5EBC5000A
:103960005D4901EB40014FEA460000F10100085CAF
:103970000DF81600C5EBC500574901EB400010F8E3
:1039800016104FEA460000F101000DF8001006F194
:103990000100C6B2072EE1DB4FF046008DF80C00A7
:1039A0006A4655A14F4803F0A3FC4FA14D480E3085
:1039B00003F09EFC4FF000044A4901F1160101EBAF
:1039C00044004B4A4BA103F093FC4948FCF740FCF0
:1039D00004EB500084B204F1010084B24FF0000502
:1039E00036E0012000FA05F045490988084227D051
:1039F000012000FA05F043490988084220D1F02C43
:103A00001EDA05EBC50101EB05113F4B03EB81020B
:103A10003449143101EB440036A103F069FC05EB95
:103A2000C50101EB0511384A02EB8100FCF710FCDF
:103A300004EB500084B208F1010000F0FF0804E03C
:103A4000F02C02DB4FF0F00404E005F10100C5B2F8
:103A5000102DC6DB00BFB8F1000F36D020464FEA6C
:103A6000E47104EB11714FEA211101F130011D4A9B
:103A7000A2F10C0291774FEAE47104EB11714FEA65
:103A80002111A4EB011109290BDD4FEAE47104EBCC
:103A900011714FEA2111A4EB011101F13701D17726
:103AA0000EE020464FEAE47104EB11714FEA211158
:103AB000A4EB011101F130010A4AA2F10C02D17705
:103AC00004F10F001149088003E04FF000000F4996
:103AD000088000BFEBE60000CD02002025313273E4
:103AE000000000006301002030303038303000002A
:103AF000A50200202573000025313473000000006A
:103B0000C0030020C2030020CA030020C603002017
:103B1000704708B500214FF0006000F0ABF84FF49B
:103B2000A06000F09DF84FF026008DF800004FF0E7
:103B300001008DF801004FF002008DF802004FF0F7
:103B400001008DF80300684600F050F84FF02500A2
:103B50008DF800004FF000008DF801004FF00300D9
:103B60008DF802004FF001008DF80300684600F068
:103B70003DF84FF027008DF800004FF000008DF861
:103B800001004FF002008DF802004FF001008DF8A7
:103B90000300684600F02AF84FF01C008DF8000082
:103BA0004FF001008DF801008DF802008DF8030040
:103BB000684600F01BF84FF01D008DF800004FF034
:103BC00000008DF801004FF001008DF802008DF823
:103BD0000300684600F00AF808BD000002490148E9
:103BE000086070470400FA050CED00E0F0B50F2303
:103BF000C27801784FF0E024012742B3D4F80C2DAD
:103C0000467802F4E062C2F5E062120AC2F10405ED
:103C1000D3408278AE401A40324315018A07D20E53
:103C2000954021F003010B19D3F80064FF21914066
:103C30008E430D402E43C3F800640078410900F024
:103C40001F0004EB81018740C1F80071F0BD01F055
:103C50001F008740480904EB8000C0F88071F0BD68
:103C60000249084302490860704700000000FA0555
:103C70000CED00E0024A1140014302480160704728
:103C800080FFFF1F08ED00E070B54FF0E026D6F88A
:103C90000C3DFF2403F4E063C3F5E0631B0ADC4042
:103CA000C3F10405A94022400A43110100F0C002FB
:103CB0009209C0F30120C0008140FF23834006EB3E
:103CC000820000F6185002689A43026002680A43B4
:103CD000026070BD2DE9F04F93B04FF014010DA8B4
:103CE000FCF794FA4FF000000A900B900C9080467D
:103CF0008146F7480078012870D1F648C078082836
:103D00006DD2DFE800F06C043FF3F2F1F0EF4FF01A
:103D10000100F1490870FCF773FE1021EF48FDF730
:103D200091FC2021ED48FDF78DFC4FF0F5008DF85A
:103D300034004FF0FA008DF835004FF00A008DF88E
:103D400036004FF081008DF83700E24841680E914F
:103D500081680F91007B8DF840004FF00D010DA898
:103D600003F094FC80464FEA18208DF8410008F0DB
:103D7000FF008DF842004FF00F020DA9D84803F064
:103D800009F946E3D3484079012854D1D148C07994
:103D90008DF82A00CF48007A8DF82B00D148408852
:103DA0004FEA10208DF82800CE484088C0B28DF828
:103DB0002900C8488079112812D104220AA95A2062
:103DC000FDF722FA04220AA9D220FDF71DFA0422E7
:103DD0000AA940F2DF70FDF717FADEE01EE317E3F1
:103DE000BC4880792228F8D104220AA95E20FDF778
:103DF0000BFA04220AA9D620FDF706FA04220AA922
:103E000040F2E370FDF700FA4FF0EE008DF82C0061
:103E10004FF001020BA94FF07200FDF7F5F90122F6
:103E20000BA9EA20FDF7F0F901220BA940F2F77087
:103E3000FDF7EAF9B1E0A7484079022857D1A54833
:103E4000C0798DF82A00A348007A8DF82B00A54888
:103E500080884FEA10208DF82800A2488088C0B2E0
:103E60008DF829009B488079112810D104220AA9D5
:103E70006220FDF7C9F904220AA9DA20FDF7C4F986
:103E800004220AA940F2E770FDF7BEF985E09148E7
:103E90008079222825D104220AA96620FDF7B4F9E9
:103EA00004220AA9DE20FDF7AFF904220AA940F294
:103EB000EB70FDF7A9F94FF0EE008DF82C004FF0F4
:103EC00001020BA94FF07200FDF79EF901220BA928
:103ED000EA20FDF799F901220BA940F2F770FDF7EE
:103EE00093F95AE063E26AE1EBE0BBE082E07948F3
:103EF0004079022851D17748C0798DF82A00754859
:103F0000007A8DF82B007748C0884FEA10208DF892
:103F100028007448C088C0B28DF829006D488079A7
:103F2000112810D104220AA96A20FDF76DF9042294
:103F30000AA9E220FDF768F904220AA940F2EF700D
:103F4000FDF762F929E063488079222825D104220F
:103F50000AA96E20FDF758F904220AA9E620FDF708
:103F600053F904220AA940F2F370FDF74DF94FF01E
:103F7000EE008DF82C004FF001020BA94FF07200FB
:103F8000FDF742F901220BA9EA20FDF73DF90122D4
:103F90000BA940F2F770FDF737F94FF0F5008DF8F7
:103FA00034004FF0FA008DF835004FF00A008DF81C
:103FB00036004FF082008DF83700464841680E9178
:103FC00081680F91007B8DF840004FF00D010DA826
:103FD00003F05CFB80464FEA18208DF8410008F0A2
:103FE000FF008DF842004FF00F020DA93C4802F08F
:103FF000D1FF0EE23748D0F805100A91B0F8090059
:10400000ADF82C000AA801F0A5FE4FF0F5008DF8E0
:1040100034004FF0FA008DF835004FF00A008DF8AB
:1040200036004FF083008DF837002A4841680E9122
:1040300081680F91007B8DF840004FF00D010DA8B5
:1040400003F024FB80464FEA18208DF8410008F069
:10405000FF008DF842004FF00F020DA9204802F03A
:1040600099FFD6E101F000F84FF0F5008DF834002B
:104070004FF0FA008DF835004FF00A008DF8360049
:104080004FF084008DF83700124841680E91816826
:104090000F91007B8DF840004FF00D010DA803F04B
:1040A000F5FA80464FEA18208DF8410008F0FF002D
:1040B0008DF842004FF00F020DA9094802F06AFF87
:1040C000A7E14FF0AA008DF828004FF0000935E075
:1040D000170A0020620C0020160A00200010014080
:1040E000003801402003002001220AA94846FDF7BC
:1040F0008BF801220DF129014846FDF73FF86420B5
:1041000099FBF0F100FB119078B900BF4FF480519A
:10411000C448FDF78EFAC0F10100C4B222464FF444
:104120008051C048FDF790FA00BF9DF82900AA28E9
:1041300000D006E009F101001FFA80F9B9F5006F1F
:10414000D2DB00BF4FF0F5008DF834004FF0FA00DD
:104150008DF835004FF00A008DF836004FF08500DD
:104160008DF837004FF000008DF83800B9F5006F7A
:1041700002D14FF0AA0001E04FF055008DF8390050
:104180009DF839008DF83A004FF00000CDF83B0063
:10419000ADF83F004FF00D010DA803F077FA80460F
:1041A0004FEA18208DF8410008F0FF008DF842001A
:1041B0004FF00F020DA99C4802F0ECFE29E100F03F
:1041C00075FB9A48008810B94FF0010001E097484C
:1041D00000889649088096490868FCF7CEFA06469A
:1041E0000F4694490868FCF7C8FACDE906018F49E3
:1041F0000888FCF79EFA02460B46CDE900018E487E
:104200008E49FCF71EFACDE9020188494888FCF77F
:1042100090FA0446DDE90223FCF7A3F9CDE9040195
:10422000DDE90623FCF79DF932463B46CDE908015E
:10423000FCF7F1F88246FCF789FA814908807C494D
:104240004868FCF79AFACDE906017A494868FCF714
:1042500094FA04460D4675490888FCF76AFA8246C6
:1042600052460B4674487549FCF7EBF9CDE902015B
:104270006E498888FCF75DFACDE90001DDE902238B
:10428000FCF76FF9064622462B46FCF76AF9CDE9A2
:104290000401DDE90623FCF7BEF8CDE90801FCF7CF
:1042A00055FA6849088062498868FCF766FACDE9E2
:1042B000060160498868FCF760FA04460D465B49D0
:1042C0000888FCF736FA02460B46CDE900015A4849
:1042D0005A49FCF7B6F9CDE902015449C888FCF700
:1042E00028FA0646DDE90223FCF73BF922462B4675
:1042F000CDE90401FCF735F98246DDE90623FCF738
:104300008AF8CDE90801FCF721FA4E4948804FF0C0
:10431000F5008DF834004FF0FA008DF835004FF0BD
:104320000A008DF836004FF086008DF837004FF008
:1043300000008DF83800424800884FEA10208DF8C0
:1043400039003F480088C0B28DF83A00084600881E
:104350004FEA10208DF83B0008460088C0B28DF867
:104360003C00084640884FEA10208DF83D00084682
:104370004088C0B28DF83E004FF000008DF83F003D
:104380008DF840004FF00D010DA803F07FF9804635
:104390004FEA18208DF8410008F0FF008DF8420028
:1043A0004FF00F020DA9204802F0F4FD31E04FF06C
:1043B0000000254908704FF0F5008DF834004FF0EB
:1043C000FA008DF835004FF00A008DF836004FF0F6
:1043D00087008DF837001D4841680E9181680F9164
:1043E000007B8DF840004FF00D010DA803F04EF951
:1043F00080464FEA18208DF8410008F0FF008DF844
:1044000042004FF00F020DA9074802F0C3FD00E083
:1044100000BF00BF4FF000000D49087013B0BDE8A9
:10442000F08F000000100140003801402003002000
:1044300004130020280300205C8FC2F5A8AAAA401C
:10444000420300203A030020160A0020620C0020DC
:10445000170A002070B504464FF000052E46F52CD3
:1044600005D13248007810B93148047070BDFA2C7B
:1044700011D12F480078F5280DD12C48007850B97B
:104480002B4844704FF002002A4908804FF0010089
:1044900026490870EAE72548007838B94FF000004F
:1044A00024490880224908704870DFE720482149E4
:1044B000098844541F48008800F101001D49088004
:1044C00008460088032800DAD0E71948807800F110
:1044D000050618480088B04226DB15488078401D44
:1044E000C1B2134803F0D2F80546BDB91048C078F0
:1044F000802813DA4FF480710F48FBF787FE4FF4E2
:1045000080720B490C48FBF768FE4FF001000B4925
:1045100008704FF480710648FBF778FE4FF00000FA
:10452000044908800149087000BF9FE70800002087
:10453000620B00200A000020620C0020170A0020F5
:104540007047000070B505460C4635B10D4800684F
:1045500040F002000B49086005E00A48006820F0BE
:104560000200084908600748006820F00400054977
:104570000860012C02D1FBF7F3FD01E0FBF7F2FD2F
:1045800070BD000010ED00E070470000034A516864
:1045900021F4404101435160704700000010024087
:1045A000044A0029516901D0014300E0814351616F
:1045B0007047000000100240044A0029D16901D070
:1045C000014300E08143D1617047000000100240C8
:1045D000044A0029116901D0014300E081431161BF
:1045E0007047000000100240044A0029916901D080
:1045F000014300E0814391617047000000100240D8
:10460000044A0029D16801D0014300E08143D16010
:10461000704700000010024010B500F049F84FF458
:10462000803000F0D7F800F01FF90446012C27D1A4
:10463000002000F0C5F8002000F0F2F8A00200F021
:10464000E5F8E003FFF7A2FF0220FCF749FD102088
:10465000FCF73AFD4FF4E011200400F0F1F80120DE
:1046600000F0E8F800BF392000F08AF80028FAD0FE
:10467000022000F0EFF800BF00F09AF80828FBD104
:1046800001210846FFF78CFF012145F23D20FFF78D
:10469000ABFF01214FF4C020FFF78EFF0121032063
:1046A000FFF78AFF01214805FFF786FF10BD0000D4
:1046B0000B48016841F0010101604168094A11405D
:1046C00041600168084A11400160016821F48021BD
:1046D00001604268002122F4FE024260816070475E
:1046E000001002400000FFF8FFFFF6FE30B5204A40
:1046F0005168204B11F00C0103D0042901D0082986
:1047000001D0036011E05168022401F4701104EB40
:1047100091415468184D14F4803F02D05468A403AA
:1047200001D5694300E0594301605168134B01F022
:10473000F00109095C5C0168E1404160546804F4DF
:10474000E064240A1C5D21FA04F48460546804F4D3
:104750006054E40A1B5DD940C1605268074B02F403
:104760004042920B1B1F9A5CB1FBF2F1016130BD1C
:104770000010024000127A0000093D002079000874
:10478000034600205909094A012901D1116804E0B2
:10479000022901D1116A00E0516A03F01F020123CE
:1047A00093400B4200D001207047000000100240EF
:1047B0000248406800F00C00704700000010024002
:1047C000034A516821F0F001014351607047000035
:1047D000001002400B490A6822F480320A600A681D
:1047E000B0F5803F22F480220A6007D0B0F5802F18
:1047F00003D1086840F4A02008607047086840F4BE
:104800008030F9E70010024070470000034A516809
:1048100021F4E06101435160704700000010024044
:10482000034A516821F4605141EAC000506070476A
:104830000010024001490866704700000000424233
:10484000034B5A68084322F47C12104358607047A7
:1048500000100240034A516821F0030101435160F6
:10486000704700000010024030B50B4C40F2FF15BD
:104870003120FFF785FF20706068401C6060207861
:1048800010B96068A842F3D13120FFF779FF002802
:1048900000D0012030BD0000280A0020704770477A
:1048A00010B52021E020FEF713FD10BD2DE9F041E9
:1048B000AAB04FF0980104A8FBF7A8FC4FF0000441
:1048C00025462646204600900190029003904FF026
:1048D000190204A9FCF752FC19220DF142017820BB
:1048E000FCF74CFC19221DA940F28570FCF746FC30
:1048F00019220DF1420104A8FBF7B2FC30B91922CC
:104900001DA904A8FBF7ACFC00B91EE019220DF1AB
:10491000420104A8FBF7A4FC10B94FF0030414E013
:1049200019221DA904A8FBF79BFC10B94FF0020443
:104930000BE019221DA90DF14200FBF791FC10B903
:104940004FF0010401E04FF0FF0400BF4FF480512D
:10495000F748FCF76EFEC0F10100C7B23A464FF4CB
:104960008051F348FCF770FE00BF022C17D003DC27
:104970003CB1012C23D105E0032C16D0FF2C1ED115
:104980001AE01DE019220DF142010020FCF73CFC69
:1049900019220DF1420104A8FBF71FFC10E01922B7
:1049A00004A97820FCF730FC0AE0192204A940F29F
:1049B0008570FCF729FC03E02AB0BDE8F08100BF58
:1049C00000BF9DF81A00112803D09DF81A00222874
:1049D00036D19DF81A00112802D14FF0000001E0F5
:1049E0004FF0AA00D34908709DF81B004FF47F4197
:1049F00001EA0020D04908809DF81C00098840EA9F
:104A00000100CD4908809DF81A0011280ED14FF001
:104A1000000408E004F10D0004A9085CC74908552A
:104A200004F1010084B2042CF4DB09E0C448DDF891
:104A30001D100160DDF821104160DDF82510816056
:104A4000192104A8FBF7E2FB19210DF14200FBF745
:104A5000DDFB19211DA8FBF7D9FB282204A9192089
:104A6000FCF78CFB28220DF142019120FCF786FB1C
:104A700028221DA940F29E70FCF780FB28220DF130
:104A8000420104A8FBF7ECFB40B928221DA904A8A9
:104A9000FBF7E6FB10B94FF000041EE028220DF1F1
:104AA000420104A8FBF7DCFB10B94FF0030414E04B
:104AB00028221DA904A8FBF7D3FB10B94FF002046C
:104AC0000BE028221DA90DF14200FBF7C9FB10B92C
:104AD0004FF0010401E04FF0FF0400BF4FF480519C
:104AE0009348FCF7A6FDC0F10100C7B23A464FF467
:104AF00080518F48FCF7A8FD00BF022C17D003DCC3
:104B00003CB1012C21D105E0032C16D0FF2C1CD187
:104B10001AE01BE028220DF142011920FCF774FB7A
:104B200028220DF1420104A8FBF757FB0EE02822D2
:104B300004A99120FCF768FB08E0282204A940F2B0
:104B40009E70FCF761FB01E036E700BF00BF4FF04D
:104B5000000452E0E000C01D04A9085CEE2841D129
:104B60004FF0000526E04FF0080000FB045004A9B8
:104B7000085C4FEA101606F13000C4EBC401714A1C
:104B800002EB410101F815004FF0080000FB045052
:104B900004A9085C00F00F0606F13000C4EBC40164
:104BA00002EB41024FEA450101F10101505404F1C9
:104BB000010084B2072DD6DBC4EBC402614B03EBCA
:104BC0004202511CC4EBC40203EB42000D22FBF76E
:104BD00004FB4FF0EE00C4EBC4015A4A02EB410162
:104BE000487307E04FF00000C4EBC401554A02EBE4
:104BF0004101487304F1010084B2052CAADB28218D
:104C000004A8FBF703FB28210DF14200FBF7FEFA95
:104C100028211DA8FBF7FAFA192204A94120FCF764
:104C2000ADFA19220DF14201B920FCF7A7FA1922B9
:104C30001DA940F2C670FCF7A1FA19220DF142013C
:104C400004A8FBF70DFB40B919221DA904A8FBF726
:104C500007FB10B94FF000041EE019220DF14201CC
:104C600004A8FBF7FDFA10B94FF0030414E0192271
:104C70001DA904A8FBF7F4FA10B94FF002040BE0E9
:104C800019221DA90DF14200FBF7EAFA10B94FF005
:104C9000010401E04FF0FF0400BF4FF480512448AD
:104CA000FCF7C7FCC0F10100C7B23A464FF480518F
:104CB0001F48FCF7C9FC00BF022C17D003DC3CB135
:104CC000012C21D105E0032C16D0FF2C1CD11AE0B9
:104CD0001BE019220DF142014120FCF795FA19223F
:104CE0000DF1420104A8FBF778FA0EE0192204A99D
:104CF000B920FCF789FA08E0192204A940F2C6702D
:104D0000FCF782FA01E057E600BF00BF9DF81000F3
:104D1000EE2802D14FF0AA0001E04FF055000A49F9
:104D200008709DF81100EE2810D14FF0AA000FE096
:104D300000100140A40200209602002092020020F0
:104D400098020020CD020020B60300204FF055004D
:104D5000B94948709DF81200EE2802D14FF0AA0020
:104D600001E04FF05500B54908709DF81300EE289A
:104D700002D14FF0AA0001E04FF05500AF49487052
:104D80009DF81D00EE2830D14FF000042BE04FEAD3
:104D9000840000F1050004A9085C4FF47F4101EA9A
:104DA00000204FEA840101F1060104AA515C40EAA7
:104DB0000100A34921F814004FEA840000F1070024
:104DC00004A9085C4FF47F4101EA00204FEA840106
:104DD00001F10801515C40EA01009A4921F81400F0
:104DE00004F1010084B2022CD1DB9DF82100EE28F1
:104DF00007D19DF81F00944908709DF82000934941
:104E000008709DF82800EE2817D19DF824004FF473
:104E10007F4101EA00209DF8251040EA01008C49FD
:104E200008809DF826004FF47F4101EA00209DF89C
:104E3000271040EA010087490880192104A8FBF7E0
:104E4000E5F919210DF14200FBF7E0F919211DA840
:104E5000FBF7DCF9192204A95A20FCF78FF9192273
:104E60000DF14201D220FCF789F919221DA940F267
:104E7000DF70FCF783F919220DF1420104A8FBF75A
:104E8000EFF940B919221DA904A8FBF7E9F910B9F7
:104E90004FF000041EE019220DF1420104A8FBF7B7
:104EA000DFF910B94FF0030414E019221DA904A87A
:104EB000FBF7D6F910B94FF002040BE019221DA937
:104EC0000DF14200FBF7CCF910B94FF0010401E0FD
:104ED0004FF0FF0400BF4FF480515F48FCF7A9FB7F
:104EE000C0F10100C7B23A464FF480515A48FCF76E
:104EF000ABFB00BF022C17D003DC3CB1012C21D14D
:104F000005E0032C16D0FF2C1CD11AE01BE019225F
:104F10000DF142015A20FCF777F919220DF14201F7
:104F200004A8FBF75AF90EE0192204A9D220FCF7D5
:104F30006BF908E0192204A940F2DF70FCF764F96C
:104F400001E039E500BF00BF9DF82800EE2870D1D0
:104F50004FF0000467E004AA12F834104FF47F42C7
:104F600002EA0121E200521C04AB9A5C41EA020011
:104F7000FBF7D6FB0090E100891C04AA515C4FF4BA
:104F80007F4202EA0121E200D21C04AB9A5C41EAB2
:104F90000200FBF7C5FB0190E100091D04AA515C6A
:104FA0004FF47F4202EA0121E200521D04AB9A5CF9
:104FB00041EA0200FBF7B4FB0290E100891D04AA5C
:104FC000515C4FF47F4202EA0121E200D21D04ABA2
:104FD0009A5C41EA0200FBF7A3FB03900299009858
:104FE000FBF79DF9074603990198FBF798F980466E
:104FF0003946FBF7D0F9194941F824000299009885
:10500000FBF78DF98046154850F824104046FBF711
:105010008CF907460199FBF785F9114941F82400FD
:1050200004F1010084B2032C95DB4FF001000D491F
:10503000087000BFC0E40000B6030020B8030020E1
:10504000AE030020B2030020BA030020BB030020FF
:105050008603002084030020001001402803002064
:1050600004130020180A00201CB54FF00000009027
:105070000190044600900190214908804FF0C8003B
:105080002049088000BF0DE0C4F101004FEAC001D3
:105090001B48008840FA01F0C0B20DF8040004F18A
:1050A000010084B2022CEFDB4FF000040FE0C4F1EA
:1050B00001004FEAC0011348008840FA01F0C1B274
:1050C00004F102000DF8001004F1010084B2022C7A
:1050D000EDDB4FF000008DF804004FF0050269464B
:1050E0004FF05500FCF790F805226946CD20FCF7FB
:1050F0008BF80522694640F2DA70FCF785F81CBD92
:105100008603002084030020FEB504460D464FF0C0
:105110000000009001900290064600BF06E0414862
:10512000805D0DF8060006F10100C6B2062EF6DB22
:1051300020464FEAE47104EB11614FEA11218DF82A
:1051400006104FEAE47104EB11614FEA2121A4EB50
:105150000121C9B28DF8071028464FEAE57105EB29
:1051600011614FEA11218DF808104FEAE57105EB46
:1051700011614FEA2121A5EB0121C9B28DF8091077
:105180004FF000008DF80A008DF80B0026480088CB
:10519000B0F5EB6F03D34FF0C800234908802348D4
:1051A00000888C2805DA2148008800F101001F4999
:1051B00008800C2269461C480088FCF725F81A482C
:1051C000008800F10C0018490880184800884FEA50
:1051D00010208DF8000015480088C0B28DF801003D
:1051E000084600884FEA10208DF802000846008823
:1051F000C0B28DF803004FF0EE008DF804004FF0C0
:10520000050269464FF05500FBF7FEFF052269468F
:10521000CD20FBF7F9FF0522694640F2DA70FBF773
:10522000F3FFFEBD8C0200208403002086030020D3
:1052300010B5FC48007844287DD007DC78B11128EF
:105240000ED022282ED0332871D14DE055286FD0B2
:1052500066286ED077286DD08828F5D147E185E1A2
:10526000F1480078AA280CD1F0480078AA2808D183
:105270004FF00100EE4908704FF00000ED49087052
:105280000FE0E948007855280BD1E8480078AA28B3
:1052900007D14FF00000E64908704FF00100E549E2
:1052A000087063E1E0480078AA280CD1DF48007854
:1052B000AA2808D14FF00000DD4908704FF0010026
:1052C000DC4908700FE0D848007855280BD1D74842
:1052D0000078AA2807D14FF00100D54908704FF097
:1052E0000000D449087041E1CF484078AA280CD189
:1052F000CE484078AA2808D14FF00100CC49087068
:105300004FF00000CB4908700FE0C748407855289F
:105310000BD1C6484078AA2807D14FF00000C449F5
:1053200008704FF00100C34908701FE103E01CE161
:1053300023E060E09DE0BC484078AA280CD1BB483F
:105340004078AA2808D14FF00000B94908704FF002
:105350000100B84908700FE0B348407855280BD1D8
:10536000B2484078AA2807D14FF00100B049087030
:105370004FF00000AF490870F8E0AF480088A0F592
:105380007F41FF3918D0AD480088AB490988884271
:1053900012DCAB480078AA280ED1A8480088A94999
:1053A0000988884208DD4FF00100A14908704FF0DC
:1053B0000000A04908701DE09F480088A0F57F41CB
:1053C000FF3917D09F4800889B490988884211DB24
:1053D0009B480078AA280DD19848008899490988E7
:1053E000884207DD4FF00000914908704FF001003E
:1053F00090490870BAE090480088A0F57F41FF39D5
:1054000018D08E4800888C490988884212DC8C4864
:105410000078AA280ED1894800888A4909888842DC
:1054200008DD4FF00100834908704FF0000080490B
:1054300008701DE080480088A0F57F41FF3917D033
:10544000804800887C490988884211DB7C480078C4
:10545000AA280DD1794800887A490988884207DD51
:105460004FF00100724908704FF000007149087058
:105470007CE071484088A0F57F41FF3918D06F4823
:1054800040886D494988884212DC6D484078AA28D6
:105490000ED16A4840886B494988884208DD4FF040
:1054A0000100634908704FF00000624908701DE078
:1054B00061484088A0F57F41FF3917D06148408896
:1054C0005D494988884211DB5D484078AA280DD1A2
:1054D0005A4840885B494988884207DD4FF0000000
:1054E000534908704FF00100524908703EE052489D
:1054F0004088A0F57F41FF3918D0504840884E4978
:105500004988884212DC4E484078AA280ED14B4880
:1055100040884C494988884208DD4FF001004549E0
:1055200008704FF00000424908701DE04248408872
:10553000A0F57F41FF3917D0424840883E4949884D
:10554000884211DB3E484078AA280DD13B4840886C
:105550003C494988884207DD4FF001003449087012
:105560004FF000003349087000E000BF00BF2D4835
:10557000007844286CD007DC78B111280ED022289E
:105580002ED0332876D164E0552874D0662873D0A5
:10559000772872D08828F5D139E16BE1224800786C
:1055A000AA280CD121480078AA2808D14FF0010080
:1055B000254908704FF00000244908700FE01A4890
:1055C000007855280BD119480078AA2807D14FF048
:1055D00000001D4908704FF001001C49087049E1A6
:1055E00011480078AA280CD110480078AA2808D1C0
:1055F0004FF00000144908704FF001001349087083
:105600000FE00948007855280BD108480078AA28EF
:1056100007D14FF001000C4908704FF000000B4912
:10562000087027E1BA0300203E030020B8030020E1
:10563000A9030020AA0300203A030020AE030020A3
:10564000B6030020B2030020AB030020AC0300200F
:1056500025E0B0484078AA2810D1AF484078AA2861
:105660000CD14FF00100AD4908704FF00000AC497B
:10567000087013E0FDE034E065E096E0A54840786E
:1056800055280BD1A4484078AA2807D14FF0000034
:10569000A24908704FF00100A1490870EAE09D4856
:1056A0004078AA280CD19C484078AA2808D14FF00D
:1056B00000009A4908704FF00100994908700FE006
:1056C0009448407855280BD193484078AA2807D1B0
:1056D0004FF00100914908704FF0000090490870A8
:1056E000C8E090480088A0F57F41FF3912D08E486D
:1056F00000888C49098888420CDC8C480078AA28EC
:1057000008D14FF00100854908704FF0000084492E
:10571000087017E083480088A0F57F41FF3911D059
:10572000834800887F49098888420BDB7F480078DE
:10573000AA2807D14FF00000784908704FF0010007
:105740007749087096E077480088A0F57F41FF39D7
:1057500012D0754800887349098888420CDC734868
:105760000078AA2808D14FF001006D4908704FF069
:1057700000006A49087017E06A480088A0F57F4178
:10578000FF3911D06A4800886649098888420BDBD6
:1057900066480078AA2807D14FF001005F490870D9
:1057A0004FF000005E49087064E05E484088A0F554
:1057B0007F41FF3912D05C4840885A494988884265
:1057C0000CDC5A484078AA2808D14FF00100534910
:1057D00008704FF000005249087017E051484088A7
:1057E000A0F57F41FF3911D0514840884D49498883
:1057F00088420BDB4D484078AA2807D14FF00000C3
:10580000464908704FF001004549087032E04548AC
:105810004088A0F57F41FF3912D043484088414974
:10582000498888420CDC41484078AA2808D14FF0CA
:1058300001003B4908704FF000003849087017E03C
:1058400038484088A0F57F41FF3911D0384840885A
:105850003449498888420BDB34484078AA2807D16C
:105860004FF001002D4908704FF000002C490870DE
:1058700000E000BF00BF2F480078012810D12E485B
:105880000078AA2807D02C480078552803D1802119
:105890002A48FBF7D7FE4FF000002949087011E0B5
:1058A0002748007801280DD123480078AA2804D180
:1058B00080212248FBF7C4FE00E000BF4FF000004B
:1058C0001C49087015480078012810D11A48407802
:1058D000AA2807D018484078552803D140211748F6
:1058E000FBF7B0FE4FF000000D49087011E00C48C6
:1058F000007801280DD110484078AA2804D1402111
:105900000E48FBF79DFE00E000BF4FF0000003498A
:10591000087010BD3E030020B8030020AB03002038
:10592000AC0300203A030020AE030020B6030020A1
:10593000B2030020A9030020400300200010014012
:10594000AA0300207047704770B505464FF4FA640B
:105950002946104800F08DF802E0A4F1010084B25D
:1059600002210C4800F07CF808B9002CF5D14FF466
:10597000FA6402E0A4F1010084B20121054800F0BC
:105980006FF808B9002CF5D1024800F070F8C0B2E9
:1059900070BD000000300140704770470029018849
:1059A00002D041F0400101E021F040010180704748
:1059B00000B585B0164800F02DF84FF00000ADF8A6
:1059C00000004FF48270ADF802004FF00000ADF817
:1059D0000400ADF80600ADF808004FF40070ADF813
:1059E0000A004FF01800ADF80C004FF00000ADF8C1
:1059F0000E004FF00700ADF810006946044800F0B3
:105A00003AF801210248FFF7C9FF05B000BD0000C8
:105A100000300140114910B5401810D0B0F5806F2A
:105A200010D0B0F5784F18D101210C032046FEF7B5
:105A3000E7FD2046BDE810400021FEF7E1BD012151
:105A40008C0301E00121CC032046FEF7C1FD204676
:105A5000BDE810400021FEF7BBBD10BD00C8FFBF70
:105A60000246128900200A4200D001207047808936
:105A700070478181704770B502880B884E888C888A
:105A8000CD8833432C430E8923434C8933438D897E
:105A90002343CC892B4302F4415223431343038015
:105AA000828B22F400628283098A018270BD704772
:105AB00010B5FEF7B1FDFBF709FCFEF72AF800F080
:105AC000AFFF01F07DF9FDF789FCFFF771FFFAF7F1
:105AD00097FFFBF7EFF900F04FFDFBF70DFBFEF72B
